:020000041008E2
:4000000000780408F90208100D00000061030810610308106103081061030810000000000000000000000000000000005D0308105D030810000000005D0308105D0308104C
:400040005D0308105D0308105D0308105D0308105D0308105D0308105D0308105D0308105D0308105D0308105D0308105D0308105D0308105D0308105D0308105D03081000
:400080005D0308105D0308105D0308105D0308105D0308105D0308105D0308105D0308105D0308105D0308105D0308105D0308105D0308105D0308105D0308105D030810C0
:4000C0005D0308105D0308105D0308105D0308105D0308105D0308105D0308105D0308105D0308105D0308105D0308105D0308105D0308105D0308105D0308105D03081080
:400100005D0308105D0308105D0308105D0308105D0308105D0308105D0308105D0308105D0308105D0308105D0308105D0308105D0308105D0308105D0308105D0308103F
:400140005D0308105D0308105D0308105D0308105D0308105D0308105D0308105D0308105D0308105D0308105D0308105D0308105D0308105D0308105D0308105D030810FF
:400180005D0308105D0308105D0308105D0308105D0308105D0308105D0308105D0308105D0308105D0308105D0308105D0308105D0308105D0308105D0308105D030810BF
:4001C0005D0308105D0308105D0308105D0308105D0308105D0308105D0308105D0308105D0308105D0308105D0308105D0308105D0308105D0308105D0308105D0308107F
:400200005D0308105D0308105D0308105D0308105D0308105D0308105D0308105D0308105D0308105D0308105D0308105D0308105D0308105D0308105D0308105D0308103E
:400240005D0308105D0308105D0308105D0308105D0308105D0308105D0308105D0308105D0308105D0308105D0308105D0308105D0308105D0308105D0308105D030810FE
:400280005D0308105D0308105D03081010B5054C237833B9044B13B10448AFF300800123237010BDC864020800000000542F0810084B10B51BB108490848AFF3008008486C
:4002C000036803B910BD074B002BFBD0BDE81040184700BF00000000CC640208542F0810BC460208000000007047EFF3108072B6704780F310887047FFF7F6FF72B6114C94
:40030000114DAC4209DA21686268A368043BA2BFC858D050FAE70C34F3E70C490C4A00209142BCBF41F8040BFAE70A480A490860BFF34F8F00F020F900F0FAF800F01EF885
:40034000FEE700004C11091064110910C8640208A46E02080040020808ED00E0FEE7FEE700B504207146084202D0EFF3098001E0EFF30880043001F029F9FEE708B5064BBD
:400380005B6813F4003F01D001F0E0F862B600F0EDF9002008BD00BF00002640704700BF5C4AD2F8803303F00F0303F1D00152F8212002F00702032A04D0042A05D092B96A
:4003C000554914E0554A116811E003F1C002514951F8222002F01F02112A06D0132A04D04FF4FA4103E04E4901E04FF400418BBB484BD3F8902502F00100D3F88825C2F37C
:400400000172D3F8883513F0405F07D0414BD3F88835C3F30173012B02D102E0012300E0002303B108B9032A46D13A48D0F88025C2F31103D0F88425C2F30C02D0F8800510
:40044000C0F300600130B1FBF2F202FB03F2B2FBF0F131E0012B2FD12E4BD3F8402602F00100D3F80026C2F30172D3F8003613F0405F07D0274BD3F80036C3F30173012BF2
:4004800002D102E0012300E0002303B108B9032A12D12048D0F8002602F07F02D0F80036C3F30423D0F80006C0F3044002FB01F2B2FBF3F2B2FBF0F1164BD3F88033C3F3CD
:4004C000011321FA03F215494A601648D0F89030C3F3072301330069000E0130B2FBF0F08860B2FBF3F3CB600B6103F5742202F23F220D48A0FB0202C2F387420A7503F2C6
:40050000E7330A4AA2FB03239B098B61DB03CB61704700BF0000264000127A008C42020800366E010000214083DE1B43D34D621008B5104BD3F8802122F0404242F080424D
:40054000C3F88021D3F8802142F00042C3F88021D3F8802122F00102C3F88021FFF71EFFFFF71EFF00F022F800F028F800F0ACFD08BD00BF0000264008B5FFF7B6FE074A8B
:40058000D2F8883043F47003C2F88830BFF34F8FBFF36F8FFFF7ADFE08BD00BF00ED00E008B5012000F09EFC08BD00BF08B500221146042000F006FA08BD00BF10B506489E
:4005C00000F0BCFA01F05DF80446044800F022FB204601F05AF810BDE4640208D824081008B544F20103984252D00BD841F20103984238D043F21203984244D0B0F5805FE5
:4006000066D112E044F2070398421AD004D844F2060398421ED008BD44F2080398420BD044F2140398424CD008BD0021084601F007FA284807F072FA0021084601F000FA59
:4006400008BD4B78234880F8413008F0A3FD00F0C9F808BD204B1B78002B39D100F0C2F800F000F908BD0B78042B31D1CA78194B93F844309A422BD100F0B4F8154A936CDA
:400680000133936408BD00F0ADF800F029FF08BD124B1B685B6A1A78102A01D10522DA700E4B1B685A6A49795171586A08F0F6FC70B108F02BFD094B1B68586A08F0EEFC98
:4006C00008BD4222034801F0C4FE054808F038FD08BD00BFAC420208896E0208C46602083043020800B587B01C4A01AB07CA03C31A7004A802F062FD40BB9DF810303033DC
:400700008DF804309DF8113030338DF806309DF8123030338DF80830BDF814106423B1FBF3F202F130008DF80A0003FB12139BB2ADF814300A21B3FBF1F202F130008DF8B5
:400740000B0001FB123330338DF80C3001AA0921042001F04BFE07B05DF804FB0C25081008B5002000F01CFE08BD00BF00B583B0114B93E803000090ADF80410090C8DF872
:40078000061000F01FF80D4800F050F86A460721022001F02BFEFFF7A5FF02F01FFDFFF7DFFF074B9B6C002BF7D0054800238364443003F0D5FEF0E718250810E1050810F9
:4007C000AC42020808B54FF0007000F0EBFC2022034B9A60012203F520739A6008BD00BF000032400E4B1B78022B0BD120220D4BDA6070470C49C95C012901D90132D2B2E1
:40080000013301E000221346002BF3D01AB92022044B5A6070472022024B9A60704700BF896E020800003240886E020888B108B5094AD062094B1B7833B9104600F0AEFFB2
:400840000122064B1A7000E0002020B900F0CAFF08BD0348704708BDF8420208646602080100160008B501F02FF808BD38B50C4B9A680C4B9A420ED10D46044619B9FC21AF
:40088000094800F093FE04F11003064A52F8230042F8235038BD1030044B53F8200038BD00ED00E000400208A82708100000081070B338B504460D464368072B03D936213D
:4008C000154800F073FEB4F900306268002B08DB5201D2B203F1604303F5614383F8002305E003F00F035201D2B20C49CA540C4B9A680C4B9A420DD11DB94521064800F0C5
:4009000055FE2946B4F90000FFF7B0FF002038BD05487047002038BDA827081014ED00E000ED00E0004002080100560038B50369002B0DDA0D4604460B0C1B0423B140F2FB
:40094000B321044800F032FEA9B26160002038BD014838BDEC27081001008A0038B50368002B01DA002300E0094B73B90D460446C2600B0C1B0423B140F29A21054800F03E
:4009800015FEA9B2A160002038BD014838BD00BF01008A00EC27081038B504460D4619B99921064800F002FE2369002B03DAE3682B60002038BD024838BD00BF2C280810C3
:4009C00001008A000F2840D8F8B515460E46044682B979B90F2804D940F2A911214800F0E5FD600100F1804000F50C101E4B18600020F8BD5DB366B316F01F0F2BD10F2C62
:400A000004D940F2A911174800F0D0FD640104F1804404F50C14144F3C607E60BD60F2080021284601F020FD00212046FFF77EFF3A4652F8040B0021FFF790FF68B900214E
:400A40003868FFF773FF50B9F8BD084870470748F8BD0648F8BD0548F8BD0548F8BD0448F8BD00BF6C2808106C66020803018A0001018A002DE9F0411B4B1B68DC6823683D
:400A800083422CD90D464609A0EB4610012303FA00F819B900F0F5FD074600E00027124B18680368002B01DA002300E00F4B83B9626852F8263018EA030F05D023EA080376
:400AC00042F82630002400E0094C0021FFF72EFF00E0084C25B9384600F0D7FD00E0064C2046BDE8F08100BF6C66020801008A00020188000301880004018A000B4B1B6822
:400B0000DB681A6882420CD94109A0EB4110012202FA00F05B6853F82130184203D004487047044870470448704700BF6C6602080101880004018A0000018800024B1B6870
:400B40000BB9014B18607047786602082DE9F8430446884691461E46089F2A4B1B681BB9B421294800F022FD072C03D9B521264800F01CFD234B1B682C2000FB04F01C1826
:400B8000F5B21D50C6F307236360360CA6600F2D04D940F2A9111D4800F008FD6D0105F1804505F50C15256165680F2D04D94FF4E271164800F0FAFC154B03EB45156561DC
:400BC000A668330C1B0423B14FF4F1710F4800F0EDFC330C1B0423B140F2E3110B4800F0E5FCB3B243EA0646AE60C4F81C90C4F820800023A36117B1B7F90030A381BDE81C
:400C0000F88300BF78660208AC2808106C28081000102340F0B58FB0044618B950212C4800F0C4FCA369072B03D95421284800F0BDFCE36A1BB95621254800F0B7FCE36858
:400C4000072B03D95721224800F0B0FC236A072B03D958211E4800F0A9FC236B1BB959211B4800F0A3FC07AE04F114050FCD0FC62F6802AD26460FCE0FC533682B60079B6C
:400C80001933ADF83030089B0D93A26AE16A0CAD00953B460A98FFF759FF00210091069B0A460598FFF752FF216B2846FFF700FEBDF93030002B08DB590903F01F03012257
:400CC00002FA03F3034A42F821300FB0F0BD00BFAC28081000E100E0F8B506460F461D4614461AB9FD21264800F060FC254B1B681BB9FE21224800F059FC072E03D9FF21D6
:400D00001F4800F053FC072F04D94FF480711C4800F04CFC1B4B1B682C2101FB063001FB07314B68012202FA03F31B04466802FA06F60269EAB18F69EFB91268002A01DADC
:400D4000002200E0104AC2B92288134323600369DC6001238B614D620469330C1B0423B140F29A21094800F021FCB2B2A2600020F8BD0748F8BD0748F8BD0648F8BD00BFC3
:400D8000AC2808107866020801008A006C28081004028A0007028A00F8B505460F461646124B1B6823B940F26111114800F0FEFB072D04D94FF4B1710D4800F0F7FB0B4BB7
:400DC0001B682C2404FB0534236A23B94FF4B371074800F0EBFBE369B34204D9236A43F826700020F8BD0348F8BD00BF78660208AC2808100A028A0038B504460D460B4B99
:400E00001B6823B940F29311094800F0CFFB072C04D94FF4CA71064800F0C8FB034B1B682C2202FB0434A56238BD00BF78660208AC28081070B582B000230193044620B9CF
:400E40004FF4EA71264800F0B1FB236923B940F2D511234800F0AAFB636923B94FF4EB711F4800F0A3FB236A23B940F2D7111C4800F09CFB6369DD682A0C1CD012041A60DD
:400E80001B6820690369002B15DA01A9FFF784FD60B9019803681E0CDBB2E269934206D2226A52F8233013B1984700E0002631462069FFF73BFDADB275B16369ADB21D6086
:400EC0001B68636A1BB198470023636202E0A36A03B198470023A36163691B6802B070BDAC28081010B504460B4B1B6823B94FF4DA710A4800F05AFB072C04D940F2B5115B
:400F0000064800F053FB044B1B682C2000FB0430FFF790FF10BD00BF78660208AC28081010B50446134B1B6823B940F22D21124800F03CFB072C04D940F22E210E4800F04F
:400F400035FB0C4B1B682C2202FB0434B4F90C30002B0DDB5A0903F01F03012101FA03F32032064941F82230BFF34F8FBFF36F8F002010BD78660208AC28081000E100E06F
:400F800010B50446114B1B6823B940F24D21104800F00CFB072C04D940F24E210C4800F005FB0A4B1B682C2202FB0434B4F90C30002B08DB590903F01F03012202FA03F3A5
:400FC000044A42F82130002010BD00BF78660208AC28081000E100E01F4B98422DD00CD840282ED003D8E8B1102828D02FE0802829D0B0F5807F28D029E0184B984228D01E
:4010000006D8B0F1204F0DD0154B984212D01EE0144B98420AD00133984209D0023B984215D101E0002070470F4870470F4870470F4870474FF4A0007047074870470D48FD
:4010400070470D4870470D487047034870470C4870474FF4A400704706005200010000F0090000A0040000F00100520002005200030052000100500002005000050052001A
:40108000FF00520008B50C4B1B69002B12DB0B4B1868FFF7A1FF0122094BC3F88C24084BD3F80C34002BFAD1054BD3F88C34002BF5D108BD034808BD200023407C6602087D
:4010C000000025400200500000B583B05523ADF80030002301930C496846FFF7E9FBBDF90030002B08DB590903F01F03012202FA03F3064A42F82130022205490120FFF78C
:401100004BFE03B05DF804FB3D47020800E100E011470208104B03F5F2421268026003F5F0421268426047F604029A58826047F608029A58C26047F60C029A58026147F6B6
:4011400010029A58426147F614029A58826147F618029B58C3617047000034404168104B03F5F0421160816847F604029950C16847F608029950016947F60C0299504169B2
:4011800047F610029950816947F614029950C16947F618029950026803F5F2431A6070470000344010B5044620F07F6323F4402323B14FF49961144800F0F8F914F0806F6F
:4011C00004D0124A536823F48003536014F0006F04D00E4A536823F40003536014F0807F04D00A4A536823F48013536014F0007F04D0064A536823F400135360034B5A68FE
:4012000014435C605B6810BDEC2808100000264038B5044600F035FA2CB1184B5B681F2B03D9002302E0002300E001231D460BB3E368E3B12368E3B1104B99680B460022E0
:4012400003E0A34204D01A465B69002BF9D100E000257DB111B9094B9C6000E05461226100236361054A53680133536002E0002500E0002500F009FA284638BD8C6602081E
:4012800038B5044600F0FDF9144B5A680AB399680B4602E0A34204D05B69002BFAD1002500E00125B5B1A14206D14B695BB10B498B600021196106E019695C694C6159690B
:4012C00009B11B690B61013A044B5A6012B99A6000E0002500F0D9F9284638BD8C66020870B584B005460E46042804D940F69501284800F05BF9731EDBB2012B08D9042E37
:4013000006D0082E04D040F69601224800F04EF9042E01D0012E1CD11F4B9C68002013E023799D420FD1A3680BB133420BD1E3685A6802929B68039304A800F80C6D23686A
:401340009847154BDC6064690CB3144B9842E7D11DE0114BDC68022E01D104B12469002011E023799D420DD1A3680BB1334209D1E3685A6802929B68039304A800F80C6DBD
:4013800023689847246914B1044B9842E9D104B070BD00BFEC2808108C660208FF00420070B50546012804D94FF40471384800F0FDF8384B5B682BB101210846FFF790FFDB
:4013C000044600E00024002C5AD100F05AF90646304B5B681BB104210120FFF781FF2E4BD3F8E03013F0100F02D02C48FFF792FE4FF0B0535B7813F0FF0F04D04FF0B05375
:401400005B78DBB200E02123212B03D1284601F05BF821E022494FF61C73CB5803F01F024FF0B05393F84037DBB29B1A18BF01230A6812F4000F07D133B11A4B196847F6F8
:401440003073174AD15004E0002147F63073144AD150284601F030F80F4BD3F8E03013F0100F02D00D48FFF779FE304600F00DF9084B5B684BB108210120FFF731FF04E09F
:4014800002210120FFF72CFF074C204670BD00BFEC2808108C660208000001409C6602080000264010180016FF00420008B500F0E8F8094B5B6813F4003F0AD1064B5A68F0
:4014C00022F47F425A605968044A0A435A605A685A6000F0DAF808BD00002640003A028038B5154B5B682BB101210220FFF7F8FE044600E00024C4B900F0C3F80E4B5B6872
:401500001BB104210220FFF7EBFE0C4D6A680C4B134043F01B036B60FFF7C8FF6A68094B13436B606B6830BF04E002210846FFF7D7FE054C204638BD8C66020800002640D4
:401540000000FC0F003A0280FF00420008B500F098F8074B5A6807490A4042F468525A605A68114059605B6800F08FF808BD00BF00002640FF00FC0F10B5044605E0084B8D
:40158000186800F075F8A4F50044B4F5004FF6D8044B186800FB04F000F06AF810BD00BFA8420208A442020801BEFEE738B50D46044C18220146204600F05EFFA56100209D
:4015C000FFF7F2FF604B0208FEE700BF08B50268254BDA6142681A6282685A62C2689A620269DA6242691A6382695A63C2699A631E4A916AD963D16A1964516A5964516BBD
:401600009964926BDA64F1EE103A13F0900F27D0026A154B1A65426A5A65826A9A65C26ADA65026B1A66426B5A66826B9A66C26BDA66026C1A67426C5A67826C9A67C26C75
:40164000DA67026DC3F88020426DC3F88420826DC3F88820C26DC3F88C20026EC3F89020FFF7B2FF08BD00BF604B020800ED00E00230800803D001300238FCD100BF00BF9E
:401680007047EFF3108072B6704780F31088704710B50378012B02D0082B29D02EE01B4B1B78012B2CD00320FFF728FA184B984228D0FFF7E6FF174B1860022001F090FD02
:4016C000044601F098FD022C05D1032805D0052805D1002404E0104C02E0002400E00E4C0D4B9C420FD10B4B1868FFF7CEFF0AE0084B1868FFF7C9FF002404E0064C02E009
:40170000054C00E0044C204610BD00BF876E020801018800BC660208FF00420008B50378022B1CD0082B14D0012B1ED1124B1B78012B1CD0FFF7A5FF104B5860022001F0F5
:401740004FFD022815D00D4B5868FFF79EFF0C4808BD0A4B5868FFF798FF002008BD074B5868FFF792FF064808BD054808BD044808BD002008BD00BF876E0208BC66020825
:40178000FF00420010B5044C2046FFF779FD04F11800FFF775FD10BDC044020810B580B10A4A9060C36A03B1D3600024084B1C70084B1C70084B1C60084B1C7000F038F9B2
:4017C00000E0074CFEF7FAFE204610BDBC660208906E0208946E0208986E0208956E02080100160010B590B02E4B0CAC186859689A68DB680FC42822002102A800F034FE5C
:40180000294B02930CAB049341F69003ADF8143004238DF816301B22ADF82020ADF8222003228DF824208DF8253006238DF8263008238DF829304023ADF82A3001238DF8C3
:401840002E301A4C2046FFF7E3FC04F11800FFF7DFFC08A801F01AFD034600BB144B039302A801F0DBFC0346B0B90122114B1A700023114A1370114A1370114B9B681A6AEB
:4018800000929B6ADB88ADF804302223ADF8063068460AF0CFFA034600210A4A1160184610B010BD2C290810E11D0810C0440208F44B0208876E0208886E0208896E0208D0
:4018C000BC660208986E020808B502F039FE08BD08B5044B1B689847034B1B6803B1984708BD00BFE8660208CC66020808B510B1034A52689047034B1B6803B1984708BD92
:40190000E8660208CC66020870B5C0B006460C4615464FF480720849684600F09AFD05E016F8012B6A401DF80250013C002CF7D1284640B070BD00BF3C29081008B5FFF7EF
:40194000A0FE08BD08B5FFF7A0FE08BD08B50120FFF716FB08BD00BF08B5FFF7F7FF08BD08B50120FFF7DCFA08BD00BF08B5FFF7F7FF08BD08B5094B5860196001220849C5
:401980001046FFF709FA034628B9002205490120FFF702FA0346184608BD00BFE8660208ED180810D118081038B515460B46024601210020FFF790F9044618B12946012045
:4019C000FFF71AFA204638BD704700BF704700BF00207047004870471100160000487047110016000048704711001600004870471100160000487047110016000048704702
:401A00001100160000487047110016000048704711001600004870471100160000487047110016000048704711001600704700BF08B5024800F0CAFC08BD00BFB444020808
:401A4000F8B5022872D8002972D10022134606E03B4CE45C012C01D90132D2B20133002BF6D0012A0CD1374B1B681C6801EB8102930023445B681B79023BDBB2012B59D856
:401A8000314B1B78002B57D1304B1970E0B92D4F3C68236801EB8105AA009D186668C1EBC1014B001E44B18829822168114449686468E45A0C8039680C68224452684968D3
:401AC0000B445B8853801EE001281CD11D4F3C68236801EB8105AA009D186668C1EBC1014B001E44B1892982216811444D68616819440989298039680C68224452684968B9
:401B00000B445B895380124B18700E4B1B6818680E4B1B7803EB83039A00104405F05CFF034650B90121084A117006E0094B04E0084B02E0084B00E0084B1846F8BD00BFCE
:401B4000886E0208C4660208896E0208866E0208956E02080100160002001600FF00160070B439B9144B1B681B689968CE7F00231D460EE0104B1B681B68D968CE7FF6E7D8
:401B8000CA5C52B10133CC5C1B2C01D0134400E00125B34201D2002DF2D05DB101338279CA54002204E0D4180134855C0D550132052AF8D970BC7047C466020870B50446F6
:401BC0000AF052F90546D0B90E4B1968086A228902EB82029300143B03445A6812F0007F0DD0E67B1B695A68CB69D21A06EB4606B318A28821680448184400F02AFC28466D
:401C000070BD00BFC46602088C6E020830B587B002891A4B1B685B699B889A4229D1044601AB07C883E807000022ADF81020A289ADF8122040228DF814201846FFF7BEFFD8
:401C4000054680B923681B7803F002039BB22BB10B4B1B6821460B48984704E0084B1B68214609489847094A137803F0FE03137000E00025284607B030BD00BFC46602087F
:401C8000C86602080500010006000100906E02084288531E9BB21D2B1AD84178D1B910B40F4B1868046A02EB82029300143B23445A6812F0007F0FD01B695A68C369D31A8B
:401CC00001EB41011944074B5B5A1380002004E0012070470120704700205DF8044B7047C46602088C6E020800B583B00023ADF804308389ADF800300389ADF802301223FB
:401D00008DF80430084B1B7813F0010F09D129B18DF80510684609F0D3F902E0C06809F0EFF903B05DF804FB906E020810B4044688B10023194606E0104A52F823209442CA
:401D400000D1012101330D4A1279934206D20029F2D0002003E00021094800E0002050B949B9064B1B792BB9044A42F823400133137100E003485DF8044B70479C6E02083C
:401D8000010016000300160070B506460D460020044606E0084B53F824302946304698470134054B1B799C4204D2044B1B7813F0010FEFD170BD00BF9C6E0208906E02089F
:401DC00083792BB100207047C25C32B9013300E00023052BF8D9002070470120704700BF70B58AB004460D46BC4A137843F00103137044F20A03984200F0B18136D842F2BD
:401E00000403984200F0D98014D841F20103984200F0FD8003D8B0F5805F65D0A7E241F20203984200F0F68041F20303984200F02A819CE244F20603984200F0DE810AD803
:401E400043F21203984200F0AD8044F20403984200F02D818BE244F20703984200F0828144F20803984200F0C48180E245F20E03984200F069821BD845F20203984200F04A
:401E800019820AD844F21003984200F06B8145F20103984200F0F08169E245F20303984200F0218245F20C03984200F026825EE245F21403984200F050820AD845F20F032E
:401EC000984200F0448245F21003984200F042824DE245F21703984200F0428246F20103984200F0C68142E27D4B1E683046FFF767FF60B1304606F07DFD794E0021306864
:401F0000FFF72EFE01213068FFF72AFE37E0754B1868836A1B791BB34FF0B05696F8041601F03F0396F8052602F03F0243EA821196F8033603F01F0341EA033296F8003635
:401F400003F07F0342EA4343026B1370654A1168096BC3F3072048701268126B1B0C9370604E3368186B06F045FD33680021186BFFF7F6FD33680121186BFFF7F1FD594B04
:401F80001B68986A023007F0EDF80023049305933F238DF8103004A806F050FD0222524B1A70E4E10023504A1370504A13700A20FFF7E2FAFFF7E6FBD9E14D4B1B6813F00E
:401FC000010F40F0D4810023ADF810308DF81230444E33689B6A93F900308DF8103004A806F046FD33689B6A93F901308DF8103001238DF81130FF238DF8123004A806F04E
:4020000037FD3B4A136843F001031360AFE1FFF7BBFEACE14978374B1B88ADF81030002319E0354A32F81320ADF808209DF8092012B93248825C00E00022012A0AD92E4AFD
:4020400012F81320914205D12B4A32F81330ADF8103002E00133002BE3D09DF81130FF2B05D104D14FF472712548FFF79FFABDF81030ADF81C30ADF81830C3F3072329789E
:40208000204AD15473E10B78002B40F070810B7A3BB91D4B0222DA8024229A801B4A1A604B600E4A137803F0FE0313705FE1CB78002B40F05C8149790E4B1B88ADF810306D
:4020C000002334E00C4A32F81320ADF80C209DF80D20EAB90948825C1BE000BF906E0208F0440208C4660208876E0208896E0208986E02083C2A0810846E0208886E0208D3
:40210000402A0810946E020804670208846402080022012A0AD99E4A12F81320914205D19B4A32F81330ADF8103002E00133002BC8D09DF81130FF2B05D104D14FF47271CB
:402140009448FFF733FABDF81030ADF82030ADF81030C3F3072301218F4AD15407E1FFF713FE04E12B78002B3FD1AB78012B02D100228A4B1A706978894B1B88ADF80C3003
:40218000002319E0824A32F81320ADF810209DF8112012B98348825C00E00022012A0AD97B4A12F81320914205D1794A32F81330ADF80C3002E00133002BE3D09DF80D3039
:4021C000FF2B05D104D14FF472717248FFF7EEF9BDF80C30ADF82430ADF80C30C3F30723FF2B02D0A978704AD15402226F4B1A70BDE002226D4B1A70B9E0FFF7C5FD6C4B33
:402200001B7813F0010F00F0B280644B1B78012B03D10222614B1A70A9E0032B03D100225E4B1A70A3E0022B40F0A18000225B4B1A70604B1B685B685F4A1178C1EBC10275
:4022400003EB42039A79002A00F091809B88002B00F08D80594B1B78002B40F088800120FFF7EEFB002840F0828001224B4B1A707DE0FFF789FD7AE00B88ADF800309DF83B
:4022800001301BB90221474AD15405E023B94FF461714048FFF78AF96A7829883C4B23F812106B780021464AD15429462046FFF76BFD5CE00B88ADF804309DF805301BB9E0
:4022C0000021384AD15405E023B94FF461713148FFF76CF96B7800212F4AD15429462046FFF752FD43E00B88ADF810301723ADF8123004A808F0F0FE39E00A89531E9BB2F8
:402300001D2B13D98B89ADF81030ADF8122012238DF8143001238DF8153004A808F0D0FE234A137803F0FE03137020E00846FFF76DFC014620B929462046FFF725FD0146CB
:402340002846FFF7D1FC12E0FFF71EFD0FE0FFF71BFD0CE0FFF718FD09E0FFF715FD06E00846FFF795FC29462046FFF70DFD104B1B7813F0110F09D00D4A137803F0FE03F4
:402380001370104B1B682946204698470AB070BD846E0208402A0810FC660208896E02083C2A0810886E020800670208876E0208906E0208C4660208866E0208956E020801
:4023C000946E0208C86602080020704730B108B5034A10600348FFF7A9FC08BD0248704710670208C923081001001600082817D800B587B000230293039304930593019204
:40240000ADF80810094B1B681B6803EB40004388ADF80C3001A8FFF7D1FB18B1044801E00348704707B05DF804FB00BF106702080100160010B501390244904207D010F8F0
:40244000013B11F8014FA342F7D0181B10BD002010BD10B5431E0A44914204D011F8014B03F8014FF8E710BD02440346934202D003F8011BFAE7704710B5034642B111F8D8
:40248000014B03F8014B013A002CF7D11A4400E010BD934202D003F8014BFAE710BD0000F8B500BFF8BC08BC9E467047F8B500BFF8BC08BC9E46704701B40248844601BC2F
:4024C000604700BF554A020801B40248844601BC604700BF5D4902080300000001000000010000000000000005036000040000000100000000000000010000000604600054
:402500000800000044660208A1050810302E302E302E30303000000031323334353600000000030000001E00010000280100000007000000001800000000000002000328AB
:402540000100020003000000002A0000000000000300002A01000201030000001300000040430208040003280100020005000000012A0000000000000500012A01000201C1
:40258000050000000200000048430208060003280100020007000000042A0000000000000700042A0100020107000000080000005043020808000028010000000B000000F5
:4025C000011800000000000009000328010020000B000000052A0000000000000A00052A000020010B00000004000000584302080B00022901010A030B00000002000000D3
:40260000604302080C000028010000001E0000000A180000000000000D000328010002000E000000292A0000000000000E00292A010002010E00000015000000684302089F
:402640000F0003280100020010000000242A0000000000001000242A01000201100000000800000070430208110003280100020012000000252A0000000000001200252A87
:4026800001000201120000000A00000078430208130003280100020014000000272A0000000000001400272A010002011400000022000000804302081500032801000200E0
:4026C00016000000262A0000000000001600262A01000201160000000900000088430208170003280100020018000000282A0000000000001800282A0100020118000000E1
:402700000C0000009043020819000328010002001A000000232A0000000000001A00232A010002011A00000008000000984302081B000328010002001C0000002A2A0000D7
:40274000000000001C002A2A010002011C00000001000000A04302081D000328010002001E000000502A0000000000001E00502A010002011E00000007000000A843020842
:4027800001000300050007000000000008000A000B0000000C000E00100012001400160018001A001C001E0047656E6572617465645F536F757263655C50536F43365C7008
:4027C000646C5C647269766572735C7065726970686572616C5C737973696E745C63795F737973696E742E630000000047656E6572617465645F536F757263655C50536F81
:4028000043365C70646C5C647269766572735C7065726970686572616C5C6970635C63795F6970635F6472762E68000047656E6572617465645F536F757263655C50536F27
:4028400043365C70646C5C647269766572735C7065726970686572616C5C6970635C63795F6970635F6472762E63000047656E6572617465645F536F757263655C50536FEC
:4028800043365C70646C5C647269766572732F7065726970686572616C2F6970632F63795F6970635F6472762E68000047656E6572617465645F536F757263655C50536F2E
:4028C00043365C70646C5C647269766572735C7065726970686572616C5C6970635C63795F6970635F706970652E630047656E6572617465645F536F757263655C50536F0A
:4029000043365C70646C5C647269766572735C7065726970686572616C5C737973706D5C63795F737973706D2E630000240006003000010028000200240002000031625312
:40294000C4F5A697B988DBEA7D4C1F2E4372211087B6E5D4FACB98A93E0F5C6D86B7E4D5427320113F0E5D6CFBCA99A8C5F4A796013063527C4D1E2FB889DAEB3D0C5F6E47
:40298000F9C89BAA84B5E6D7407122137E4F1C2DBA8BD8E9C7F6A59403326150BB8AD9E87F4E1D2C02336051C6F7A495F8C99AAB3C0D5E6F4170231285B4E7D67A4B182947
:4029C000BE8FDCEDC3F2A1900736655439085B6AFDCC9FAE80B1E2D344752617FCCD9EAF38095A6B4574271681B0E3D2BF8EDDEC7B4A192806376455C2F3A0914776251407
:402A000083B2E1D0FECF9CAD3A0B586904356657C0F1A293BD8CDFEE79481B2AC1F0A3920534675678491A2BBC8DDEEF82B3E0D1467724153B0A5968FFCE9DACFFFF0000AE
:402A400047656E6572617465645F536F757263655C50536F43365C70646C5C6D6964646C65776172655C626C655C63795F626C655F6761702E68000000040400010408005F
:402A800002041400030C200004042C000506480011730810A5770810A5770810A5770810A57708108D5D0810615E0810A5770810A5770810A5770810A5770810A5770810FD
:402AC000A5770810A5770810A5770810A5770810A57708103975081085750810BD6B0810C16D08109D710810954C081000000000FC2E08109C2E08100800000001E8081028
:402B0000000000006C2D0810B82C08100F0000000000000000000000000000000000000000000000012000006184081006200000A5850810072000007584081008200000F3
:402B40006585081009200000658608100A200000618308100B200000298608100C200000F185081010200000BD830810112000003D83081012200000418508101420000080
:402B8000DD85081015200000D583081017200000918308100E200000C1830810ACFD000037880810ADFD00002B870810A0FD0000A1880810A1FD00008B870810A2FD0000D0
:402BC000C7870810A5FD000097890810A6FD0000FB880810A8FD0000FD860810A9FD0000D3860810AAFD0000EF870810ABFD00005D890810AFFD0000ED870810C3FD00002D
:402C000049890810B0FD0000C1880810B2FD00000F890810051400001B8408102D0C0000F58408107B0C0000A38408107C0C00009986081027200F202820102029201020B7
:402C40002B200A202C200B202D200D202E200C204E2017200000010001000001000102020300020000000000020201000200000100010005010005020203000200000000A5
:402C800000020501000500001DE0081085E108108DE0081001010B0102028102820503040403840906090709080909090A09050A0C0B0D0D0E0E0000010000000100000085
:402CC00000000000020000000400000002000000030000000700000005000000040000000A00000008000000050000000C0000000B000000060000000E0000000D0000006A
:402D000007000000100000000F0000000800000013000000110000000900000016000000140000000A0000001700000017000000FF00000018000000180000000B0000009C
:402D40001B000000190000000C0000001D0000001C0000000D0000001F0000001E0000000E000000210000002000000001000000BD040910FEFFFFFF8903091001000000C5
:402D8000BD0409100600000081060910F8FFFFFF8903091018001200A5030910A000000CFD00091047FFEDFB89030910E8000C00F502091000012000050209101FFED3FF45
:402DC00089030910A000000CF10A09105FFFFFFB890309100002000049090910FFFDFFFF89030910000C000005000910FFF3FFFF89030910000A0000A902091001000000D7
:402E0000C9020910FEF7FFFF89030910002000004901091000400000F9090910FF9FFFFF89030910FFFFFFFF8F030910FFFFFFFFFDFF081000800000F9FF081000000100AF
:402E4000F5FF0810FF7FFEFF8903091000800100EDFF0810FF7FFEFF8903091000008003E9FF0810FFFF7FFC8903091000801F0AF1FF0810FF7FE0F5890309100000000037
:402E80000000000000000000000000008700000000000000000000000000000081000000000000000000000082000000010000000100000001000000020000000200000081
:402EC000020000000400000003000000030000000600000005000000F10000000700000007000000F20000000900000008000000FF0000000A0000000A00000002000000A4
:402F0000810F091001000000810F09100E000000750E091002000000B90E09100C0000005D0E091002000000F90E09100C0000005D0E09100E000000810F09100C000000AD
:402F4000BD0F0910020000005D0E09100E00000001100910000000002DE9F05F00250746041D00F1180840682E4E4FF6FF7A88B1616879B180070DD1207A80070AD198F8A6
:402F80000E0038B12849084600F0B0FB10EA0A0002D044E0354642E02289A37ADFF88C90206858B1C9F800000025A9F80420A9F80650A9F808302946FFF756FAA07A801DF6
:402FC00000F0FF0B5946606800F072F8050021D1404601F07BF905001CD1E06820B1384600F0DAFA050015D1B9F80400B9F80610884206D3401A80B2594600F0B7FE20B13C
:4030000000E05046354628B109E0A07A801DC0B200F0D4F900F0E8F90549012008702846BDE8F09F01001600E132081014670208F444020803480078012801D100F026BD03
:4030400070470000F444020810B500F081FB0449002008608880C88008810249087010BD14670208F444020870B5044600208A0703D001F00302891A091D084B89B2DA887F
:403080009E885518B54206D81D682A442260DA881144D98070BD024870BD000014670208030016000148008970470000146702082DE9F84705460C460020890000908A46D8
:4030C0006846FFF7D1FF07004BD12748009B0022036017E003F82220062A08D2234803EB820100EB820046784E70408807E005EB8200183803EB820186784E700088521C13
:403100004880D2B2A242E5D300251EE005F1010909F0FF0015E003EB850203EB8001B2F802C04E88B4450AD991F80180A1F802C092F801C081F801C0568082F80180401C7E
:40314000C0B2A042E7D309F0FF05A542DED347B951466846FFF788FF070002D10449009808603846BDE8F887F8440208782A0810FC440208F0B5002319E05A1C00EB83062C
:4031800012E030F8235030F82240A5420BD2778820F8234000EB8204B4F802C0A6F802C020F822506780521C8A42EAD35B1C8B42E3D3F0BD0048704720670208064948B194
:4031C00040F29531818005210170002141700221817000210846704701001600FFF72ABF10B5022401F016F810B100F03DFF00B90124204610BD05207047000010B5002490
:4032000028B110220349FFF724F9204610BD024810BD00002067020801001600F8B506004FF000008DF8000006F1040407D020892081304601F0C6F8050002D011E0124854
:40324000F8BDA17A6A46606801F096F8050008D1E06830B1708C000903D0304600F0FAF905462089208165B93046FFF775FE050007D1304600F09EFF0546A17A6068FFF7B9
:4032800079FF2846F8BD00000100160038B504004FF00000ADF8000008D06189090A05D1617A102902D8E179102901D90A4838BDA0816946204600F0B9FF0500A089BDF879
:4032C00000100844A08104D1102221460348FFF7C0F8284638BD0000010016002067020870470000002809D005494A68002A05D0011F087852F8200000F0E2BC70470000D9
:40330000F844020810B50446FFF7CCFEC0B2801DA0420BD30648406840B150F8240000F03BFC002801D000F8044B10BD002010BDF8440208F8B516460D460446FFF7B2FEA3
:40334000C0B2801DA04203D24FF0FF300090F8BDB2B2E9B2684600F049FC0099481C03D00248406840F824100098F8BDF84402082DE9F0410746FFF795FE801D0B49C6B2AB
:40338000002005460C680CE0617839B16188B94202D32078FFF7B6FF002804D1241D6D1CEDB2B542F0D3BDE8F0810000F8440208002801D0FFF796BF7047000070B506469B
:4033C0000848002504680AE0617829B162882078121D0023FFF7AEFF241D6D1CEDB2B542F2D370BDF84402081CB50024142001908DF800402346064A694606480BF08EFF83
:4034000004480068401C01D14FF6FF7420461CBD51340810004502080EB50C4A0146002312684FF6FF7004290DD009290AD109200093ADF80800ADF80A30694610460BF0B7
:403440006AFF80B20EBD04200093F2E70045020870B5D0E90054468900890C282DD2DFE800F02C2C0606112C2C152C191C27E0B23246294609F096F8E0B23246294600F0C0
:4034800035FD1AE000200BF055FC16E02878FEF7CDFA12E000F008FE0FE0E8B2022C02D008F0BEFD09E0FF2807D002F041FF04E02846022C03D008F089FE002070BD03F0D3
:4034C00011FAFAE70148006800F0C8BA004502082DE9F0411F4F0026386D60B1796D51B14218891E12F8024C0022FEF70DFA844201D0194E2BE0002505EB850307EB83045F
:40350000606800B357F82310E9B16289D7F854C0624518D294F80CC01CF0090F02D0FEF798FF0AE009780170606831B1628957F82310083A08310830F1E723691BB10122C2
:40354000207B114698476D1CADB2042DD4D33046BDE8F08130670208FFFF1600F0B5C10701D040F008000B4CFF2184F85D10002101250E4601EB810204EB820205FA01F333
:40358000177B03409F4200D11681491CC9B20429F0D3F0BD3067020870B5124900B3418C114CC1F30711002584F85C10016921654069C4E91505FF2684F85D6028464FF628
:4035C000FF7300EB800204EB8201401C4B8144F822500D610E73C0B20D810428F1D30021084670BD010016003067020810B5174B48B3417839B3002202E04908521CD2B263
:403600000029FAD102EB8201114A02EB810111F8084CFF2C17D103787BB1438821F80A3C946D136D234441F8143C4488936D2344936582680AB141F8042C103942780A72F2
:40364000406800230860184610BD00000100160030670208F0B5428C234C46690021C2F30712D2B3D3070BD090F8203003EBC30505EB431501EB850101EB031101F14001FF
:40368000530715D5C37F2C2513FB05F55FEA857C4FF00C0723D003EB430505EBC30307EB830505F00305C5EB830505F11005294492070ED590F821004FF00803C2009507BC
:4036C0000FD003EBC00202F00302C2EBC0020C321144891C8E4200D300242046F0BD0C35E5E70832F4E70000010016000F4A10B5002313600E4A13600E4B18600E48016083
:403700000E49012008600E49086000020E4990600C4808600D4914300860A0F58A70506000F0D0F800F008FA002010BD1C45020804450208304502083445020820450208DE
:40374000104502089068020814450208284502080020704710B501004FF0000010D0094B1A689C681144A14209D25868196010448A0704D001F00302891A091D196010BD6E
:40378000002010BD044502082DE9F04102461A4F002010253B1F4FF0FF38444639681B6807E000EB800605EB86068E59761C1ED0401C9842F5D3601C16D004EB84060C20BE
:4037C00000EB86000A5002EB42008000FFF7C2FF396841F8260060B1396805EB8602002088507868401C78602046BDE8F0810446E1E74046F9E70000144502082DE9F041C4
:403800000F464FF0FF36002821DB2249096888421DD8E7B1DFF87C8000EB800508F104081020D8F8001000EB85040859401C0ED0FEF79CF8D8F800000C2202EB85020159AC
:4038400050F802C04346614504DBFEF785F83046BDE8F081082101EB8506815950F8250001EB410500EB85003D6805607D684560BD6885601868491C82588A4200D100218E
:40388000815118680159491C0151FEF765F80020DEE7000010450208002803DB08490968884202D94FF0FF307047054900EB8000091D1022096802EB800008587047000077
:4038C000104502082DE9F0430020134A0427441E03464FF0080C1025A2F10409506014E000EB8001166807EB8108401C46F8083016680CEB810846F80830166805EB81085F
:4039000046F80840166846F82130D9F800108842E6D30020BDE8F083144502082DE9F0410E464FF0FF3700284CDB29490968884248D8EEB3DFF8988000EB800408F10408C5
:403940001020D8F8001000EB84054859401C39D0FEF70CF8D8F800004346415949B3042101EB8407C25950F8240002EB420100EB8100521CD0F800C0C6F800C0D0F804C016
:40398000C6F804C08068B060186850F8240000EB810000210160416081600C21186801EB84014158914200D10022C251186801E008E009E04159491E4151FDF7CDFF0020FC
:4039C000BDE8F0813846FBE7FDF7C6FFFAE70000104502082DE9F0470D4601001E4C4FF00000089E80464FF0FF37206010D0606885420DD262B15EB1642E09D804F10C09C0
:403A0000C5EBC501D9F8000000EB8104207A10B13846BDE8F0870120226020721846FFF7B3FE6060401C13D06681A6812761676199F80410A94201D289F8045041460B4633
:403A400061F30F030A46284600F052F82846E0E784F80880DCE700001C45020810B5002810DB0949496888420CD80749C0EBC0000C31096801EB80004068FFF70DFF08B1C0
:403A8000002010BD012010BD1C450208FEB5174E4FF0FF373D4600240DE03068C4EBC40100EB8100017A29B14068FFF7F5FE08B1254603E0641C3079A042EEDA681C13D000
:403AC0003068C5EBC50100EB8104FDF74FFF69466068FFF723FF0546FDF73EFF002DD9D1216868468847D5E7FEBD00002845020838B50024009400F001F838BD1FB50022B7
:403B00000C49541E00280A6012DB496888420FD80849C0EBC0000C31096801EB800001A94068FFF76BFE401C02D0002004B010BD2046FBE71C450208F0B50021154A4E1E43
:403B4000A2F10C0711710B46BE601EE0C1EBC1000425146805EB800566511468082505EB800544F820301468635514680C2505EB8005635314680A2505EB800563531825A9
:403B8000146805EB8000491C265078688142DDD30020F0BD2845020838B5041E4FF00000009012DB1048007884420EDA0E4D0C35286800EB0411096839B1042101EB0411B1
:403BC0000844694600F047F908B1002038BDFDF7CDFE0F21286801EB0411425C521E4254FDF7BAFE009838BD384502082DE9F74F8A46002500996C1ED21C0C604FF6FC7168
:403C0000DFF8B88002EA0107A8F10C0128460A78D8F8001005E001EB00131B687BB1401CC0B29042F7D3601C2CD0042000EB041B01EB0B00514600F0FDF818BB01E00446F7
:403C4000F1E7D8F800000C2101EB041147520E22D8F8001002EB041207FB0AF001F802A00F22D8F8001002EB041201F802A000F0ABF8D8F8001001EB0411086010B1814618
:403C800000260EE0012516E0D8F8001001EB0B00494600F0FAF808B1012500E0B944761CF6B25645F0D335B90098046098F80410491C88F804102846BDE8FE8F444502087E
:403CC000F8B54FF000070D46041EADF800703ADB25480078844236DADFF88CC00CF10C0CDCF8001001EB0410006860B30C2202EB04128E5A0E2202EB041285428B5C06FBE5
:403D0000030220D395421ED2002205E002FB060EAE4504D0521CD2B29A42F7D39FB1042000EB0417C81966466A46294600F0C7F848B9BDF80000012807D03068294638443F
:403D400000F0A3F818B10120F8BD0020F8BDFDF70DFE0F21306801EB0411425C521C4254FDF7FAFDF1E70000384502082DE9F0410D46002400F03CF8002821D11149002218
:403D800001F10C034A600C210E264FF00F0E14E01F6801EB041C07EB04173A601F6827F80C201F6806EB041C07F80C200EEB041C1F68641CE4B207F80C20AC42E8D31A71C3
:403DC000BDE8F0813845020800280BD0074AC01C20F00301506853880144994203D8936851601844704700207047000038450208F8B5064600200E4D00900C012970214626
:403E00006846FFF731F958B905F10C0100980860301B001F84B221466846FFF725F910B14FF6FF70F8BD6C800098A8600020F8BD3845020830B50D4604000AD0A800FFF711
:403E4000C3FF606028B125704FF0FF306080002030BD012030BD70B50D46040004D01DB1B4F90200002801DA012070BDFDF77EFDB4F90210606850F8210028606088401E9E
:403E80006080FDF769FD002070BD70B50D46040006D02DB12078B4F90210401E814201DB012070BDFDF762FD6088401C00B26080616841F82050FDF74FFD002070BD70B55C
:403EC00000231D4610B1B0F902400AE0012070BD466856F823608E4201D1012503E05B1CDBB29C42F4DA1570002070BD70B586B015460E460446182200216846FEF7B4FAAC
:403F000000238DF800308DF80140ADF804506846029600F00CF906B070BD00000EB501890091407801900A20ADF808000020ADF80A000348694600680BF0EDF90EBD0000F1
:403F4000004502080EB541680091417801910221ADF808100089ADF80A000348694600680BF0D9F90EBD00000045020800F0DEB802490020488000F071B800004C450208DC
:403F80002DE9F041074621480125002405704FF6FF75012F02D0022F2FD10DE0477082801B4A128842F4807282818160174800F0BEF810BB2C4620E0164E012B20D0B6F838
:403FC00000C0022B624492B2328010D081607188091D8A4211D1104947708280098841F400718181094800F0A2F818B103E009684161ECE72C46002030802046BDE8F08134
:404000004A887280096801610420F5E7C0680208304602084C450208B445020870B504460D4600EB4400C20000212846FEF71CFA074A002007491471156090715071064881
:40404000FDF798FC08B1002070BD012070BD0000504502081D3F0810453F081001491420FFF7DCBFD868020810B5FDF767FC06494A7989798A4201D1012400E00024FDF771
:4040800061FC204610BD00005045020805494879401CC0B248710A79904201D100204871704700005045020810B5FDF759FC0B4948798A7990420DD0096800EB400001EB88
:4040C000C000AFF21B020649FDF76EFC10B10920FFF7A2F9BDE81040FDF738BC504502088D40081070B5104C0146A2796379501CC0B2834216D02579854200D193B120686F
:4041000002EB420200EBC2001822FEF7A2F9A079401CC0B2A0712179884201D10020A071012070BD002070BD50450208704710B5FFF7D8FF0446FFF7B7FF204610BD0000CC
:4041400010B5124802F0E8FB68B9114802F004F848B911490F480860084600F071FA10B90E4809F03FF904000ED1FFF7B1F90404240C04D0002141F2050000F07FF900215F
:404180004FF4805000F07AF9204610BD15590810BF5C08102D93081060450208FD8D081010B504F01FFC03F04DFDBDE8104004F0ABBC000070B50546041D00F1180600F083
:4041C0009BF9124829680160616809888180A17A03290ED361688979017261684989C1F34701417261688989C180B1798172B17BC17200F091F8002806D100F0A5F800280F
:4042000002D1034A0121117070BD0000B86A02085845020810B502F069F9012803D1FFF751F9012800D0002010BD00002DE9F0411C4D0C46060005D0DFF86C8098F800004F
:4042400018B16D1C2846BDE8F081708908F016FB308808F019FB0500F4D1304609F0FAFF0746304603F088FB0744304601F016F8384400F634102080304605F0BEFC218853
:4042800008442080B17BC1EBC10100EBC1002080304601F0F7FB218808442080A8F80400D0E70000010016005845020810B505F03BFC03F06FFB00F0C3FF09F0F5FF01F047
:4042C0009FFBBDE8104008F0ADBA000010B5040010481DD0204608F0ADFA002818D1204601F09CFB002813D1204609F0E9FF00280ED1204600F0ACFF002809D1204603F008
:404300004FFB002804D12046BDE8104005F018BC10BD000001001600094810B50949C07A887000F071FF064801F0B6FB002806D103F048FBBDE81040014805F03FBC10BD14
:40434000B86A02085845020810B500220849094800F022FF10F0FF0008D000220449054800F01AFFBDE8104004F042BF10BD00004141081001810810F0B50026354616707D
:40438000334616E030F82340082C0AD900EB83077F8837B1083C20F823401478641C147005E053B100EB830420F8235065805B1CDBB28B42E6D33046F0BD014EFBE7000090
:4043C00001001600F0B52B4B041D002099881B7802460BB12848F0BD274E2368083E4BB127898F4206D3616821B100234FF0020CA57A35E03046F0BD0CEB820431F804E0ED
:40440000BEF1000F28D031F822402CB304FB0E339BB23AB1012A0ED0022A11D0032A14D000201BE0B1F800E08C78BEF1230FE1D3032CDFD310E08C8874B1302CDAD30BE082
:404440000C894CB1282CD5D306E08C8924B1233C4FF6BA7E7445CDD20028CCD1521CD2B29542C9D8C5EBC50103EB81018F42C1D3F0BD00005845020809001600034A1268F6
:40448000002A02D0002800D010477047B86A020870B5044605F0AFFB01F00AFC00F05CFE144D012C11D0022C0ED1002143F21200FFF7E4FF00F020F8FEF7C6FDFFF7F6FE18
:4044C000FFF76EFE0020287070BDFEF773FE4489FFF722FF38B9FFF737FF20B901202870204608F0CBF9BDE87040002143F20100FFF7C4BF58450208024800210160416021
:4045000081607047B86A020801464FF6C05007F0FFBC000008B504218DF8001010B100788DF803000549487808B1401E4870694641F20100FFF7A2FF08BD0000584502086E
:40454000064910B509780448002903D00220FFF7DBFF002010BD0000020016005845020838B503000B4810D0597800290DD00A4C084D60786D1C042806D201200090074AB4
:40458000184608F0E3FC08B1284638BD6178491C617038BD01001600584502081545081030B50C46054600F00DF8002806D1044A6978126802EB0111C988218030BD000079
:4045C000644502080B4B024642F6137051781B7899420DD2084B1B6803EB01110B7A6FEA03039B0704D4127809788A4200D10020704700005A4502086445020810B50A4972
:404600000A4B027809781B68491EC9B203EB01142478A24202D14170002010BD0029F3D14FF6FF7010BD00005A450208644502080249096801EB0010807B704764450208EA
:4046400042F6117138B1006828B105490A6822B142F61470704708467047086000207047684502082DE9F74F84B0154604980E4660B1152E05D01E2E0BD9D22E09D0522EC8
:4046800007D042F6127007B0BDE8F08F42F61170F9E700200390049890F80180FF208DF808000498FFF78EFF07002ED1DFF854A542F6147B1B2E0CD01D2E0AD0F0070BD019
:4046C000012E06D0DAF8001001EB0810007BB0421AD1F00703D00FE01E2EF3D0F9E71E2E14D0DAF8001001EB0810407B20B1522E0CD0D22E08D109E01D2E07D1DAF800100A
:4047000001EB0810407B08B15F46D6E0012E20D0DAF8001001EB0810C088001DFEF728FE040018D002214FF0010942F616700F2E75D013DC4FF005024FF0030729D2DFE849
:4047400006F0282BFB48FA54F971F880F78FF685F5000920E2E742F60577AEE0182E6FD009DCA6F11002082A13D2DFE802F0E7B5FDE81212EBEB1E2E7ED006DC192E7BD0E7
:404780001B2E01D01D2E04D1EEE0522E75D0D22E74D042F612778DE0E878042809D0DAF80030A97803EB0810007B401E81420ED105E0DAF8001001EB0810007B38B1A87862
:4047C00060712888A071000AE071E878F7E05F4670E02988172901D207466BE0ADF8067028886071000AA07144E02879012817D01027ADF8061028796071EA88BDF80630F7
:40480000BF1C201D7A4318442968FDF722FEBDF80600E98807FB0100ADF806002AE050E00227E6E7ADF80690A88829688200601DFDF70FFEBDF80600A98800EB8100EBE772
:40484000D0E1ADF80610A888801C5CE0286808B1A88828B9012003900020ADF806900090434601222146284600F0EEFB070026D00398F8B1267102E061E075E076E10020AA
:404880008DF80A008DF80960304600F09FFA04998DF808006A460988ADF80410BDF806100094091DADF806100146002002F094FF070002D02046FEF77BFD3846E3E6E888C9
:4048C0009DE1ADF80690AA88601D2968FDF7C1FDBDF80600A988AFE0EA88002A3FF47CAFAA88002AFAD0DAF8007007EB0813DB885B1E9A42BFF670AF2A68002AEED0ADF878
:404900000610A888001DA8806071AA88E888BDF806304243201D18442968FDF79AFDBDF80600A988EA8801FB020075E7DBE0BFE0B5E083E047E033E021E003E0DEE0ADF8C9
:40494000069097E729890029C8D0ADF80690221D288909F80200BDF80670631D010AF954BDF80600801C4EE0434601222146284600F046FB07009DD1E888C01C4CE72988A3
:404980001729FFF429AFADF8067028886071000AA071DAF80020298802EB0810418069E7298800299AD06B88002B97D099423FF613AF6171080AA0716888E071000A20720F
:4049C000ADF8062056E72A89002A87D06989002984D08A42EBD8ADF80690221D288909F80200BDF80670631D010AF954BDF80670A11D68897854010ABDF80670E01D3954E6
:404A0000BDF80600001D81B2ADF80610A8898854BDF80610000AC854BDF806004346801C82B2ADF806202146284600F00DFB0700A1D1BDF80600E9880844EDE62988002968
:404A4000B0D06A88002AADD09142B0D8ADF80690211D288809F80100BDF80670631D020AFA54BDF80670A21D6888B854020ABDF80670E01D3A54BDF80600001D82B2ADF839
:404A80000620287D012801D050185EE0A8885054000A67E0022000E010200844BCE62988002992D06171080AA071ADF80670E1E62988002989D0ADF8069028886071000A3A
:404AC000A071BDF80600221D801C81B2ADF8061068888854010ABDF80620601D1154BDF80600801C98E642462146284600F062FA07009DD1E98809EB41008DE629880029A7
:404B00009ED06A88002A9BD091429ED8ADF80690201D298809F80010BDF80670631D0A0AFA54BDF80670A21D6988B9540A0ABDF80670E11D7A54BDF80610091D8AB2ADF82B
:404B40000620297D01290AD010441022291DFDF780FC287DBDF8061001289DD19AE7A9881154080ABDF80610C854F2E7288900283FF411AEADF806902889271D010A09F832
:404B80000700BDF80620601D1154BDF80600801CADF80600DAF8001001EB0810C0880F3880B2E880A988884200D9E980BDF80600EA8838442968FDF74CFC2868FEF7F8FBF5
:404BC000BDF80600E988084480B2ADF806003844E96801602969416069698160BDF806000C3019E6297811B101297FF4F5ADADF80690221D287809F80200BDF80600401C80
:404C00000AE600006445020830B50C460546FFF7D9FC002805D1034A6978126802EB01118C7330BD64450208F0B40E480023122603600D48012401780A48001F172205687E
:404C4000491E05EB011046708460C28042808280037343738473F3D1F0BC1721034A042001F09ABE684502085A450208ED4D081070470001704700000149002008607047FD
:404C80006445020801010148FEF7EEB96445020870470000044A4079126802EB001080680860002070470000644502082DE9F843324E0746457930684FF0000800EB0510DD
:404CC0004FF01209846811F1090F2DD011F1050F05D00C22042914D0082949D136E04078122806D008F096F9316801EB051181F80190316824F0040401EB051181F80D801B
:404D000036E04178122906D10092401C3B461C4A1E2108F01BF93168787A01EB0511401C487344F0040423E04078122806D008F071F9316801EB051181F80190316824F013
:404D4000080401EB051181F80C8011E04178122906D10092401C3B46094A1E2108F0F6F83168787A01EB0511401C087344F00804306800EB05108460BDE8F883644502088A
:404D80008D50081070B5104D04460129286800EB0410816016D140781226122805D008F039F9286800EB041046702868012200EB041017218260C1804180818000210173DF
:404DC0004173827370BD000064450208032809D9C10704D01B2804D01D2802D003E01E2801D0F1207047F220704700002DE9F04F85B00646032956D803D1002A53D0002B4C
:404E000051D04E484FF0FF0A42F6137904784FF001008DF80A008DF804A049488DF805A096F800C0006825460DF10C0BA4F1010400EB041797F80080C44508D1BF68012F62
:404E400005D08DF8054030788DF8040007E0002CECD1B9F1000F02D0012924D126E0012921D002294CD01078142801D9162805D31E2858D9D22856D0522854D08DF808A06A
:404E80008DF809A00092ADF806309DF808106A46002002F0A1FCA0F53C51123903D1012106200AF01FFA05B0BDE8F08F6D1E00EB05118968012906D0002DF7D19DF80500CA
:404EC000FF28F0D0E1E7EAB28DF8052031788DF8041000EB05103178017002211046FFF751FF81208DF808008DF8090003A9304600F0EEFB0720CDF800B0ADF80600DDE7E0
:404F0000E0B20121FFF73EFF82208DF808008DF8090003A9304600F0DBFB0720CDF800B0ADF80600B1E78DF80900FFF74FFF521C8DF808005B1E0092A5E700005A450208F9
:404F400064450208F8B50546447A807A0E46012822D1287A81281FD082281DD076B91E2C0CD0E10702D01D2C0DD005E0522C03D0D22C01D01B2C06D1FF2804D0E00704D07F
:404F80001B2C04D108E0082103E01E2C04D16FF004012846FFF78AFE05480768002F06D0E888009032462146281D2B68B847F8BD68450208F0B58788012405683B0019D025
:404FC000DFF838E004F1020CDEF8006006EB0216F68866450AD30C4435F8026B26714FEA162666715B1E1FFA8CF4EBD1F91AC1800020F0BD42F61670F0BD000064450208A0
:405000002DE9F0410489CCB1DFF838C08788961CDCF800C037440CEB031C42F62075BCF806C0674507D80A441471240A5471B2B200F00AF805462846BDE8F08142F61670EF
:40504000FAE70000644502082DE9F0410D468488016804B151B10C4EA718366806EB0313DB889F4206D99B1AC38004E042F61170BDE8F081C480C388A818001D1A46FDF78A
:40508000E8F90020F4E70000644502082DE9F041184E0446407931684FF0000501EB001042F6177780686FEA0000410701D4691F03E000070DD46FF008012046FFF7F6FDAA
:4050C000607A3946401C60722560E5802046FFF739FF6079316801EB00104078122807D007F098FF61793268122002EB01114870BDE8F0816445020870B50446C38804C83A
:40510000042101F013FC05000FD1617AC8070ED01D2912D0522908D0D22906D01B2904D06FF008012046FFF7C1FD284670BD5229FBD0D229F9D01E29F2D00421F2E700004B
:4051400020B10449097801700020704741F21300704700006C45020810B50E4C2078032804D0022802D041F2120010BD0AF0EDF800F0C2FF07F0E6FB0AF0E6F8FEF7F6FEA3
:4051800007F0DEFF00F03EF909F040FD0020207010BD00006C45020870B5134D04462878012802D041F2110070BD0220287069600AF0AAF809F01CFD00F006F907F08EFF07
:4051C0000AF0CAF8204606F097FE040003D107F06BFB040002D00120287003E000F01EFF0AF0BBF8204670BD6C450208054810B50178022904D103210170406800B1804713
:40520000002010BD6C45020810B50C4C2078002812D160600AF07EF809F066FD00F0CCFAFEF7A6FE0AF0A0F807F022FC00F07EFF0AF09BF80120207010BD00006C45020851
:405240000248002181604160704700007445020838B5044600200090204600F01FF801466846FDF701FF002812D10B4B009A5A60A17BCC070DD001EB810404EBC1010324C0
:4052800004EA4104C4EB4101091D11440091996038BD1A246143F8E774450208817B007A4FF003030844C207C0EBC00013D003EA4002C2EB4000001D82B2C8070DD001EB29
:4052C000810000EBC10003EA4001C1EB4001091D881880B270474000EEE71A204143F7E72DE9FE4306460D0041F2114066D0002E64D0304600F08AFA040023D041F21347CC
:4053000041F21448BC4220D0A879022801D003281BD128680090A888ADF80400A8796946801E8DF80600304600F070FA040009D0BC420AD002A9684608F096F838B99DF8E1
:405340000800307041F2124437E0444530D130781B49C0EBC003AA798868002400EB43039A7132782B68C2EBC20200EB42021360AB88938001F10C0293793278C2EBC202B1
:4053800000EB420253733278C2EBC20200EB4200CA6840F8072F0A8A82800878401CC0B2087008490988814207D109F0E7FF04E0BC4202D1284609F0DFFF2046BDE8FE83D2
:4053C000744502086846020830B40C480C4C00220088A368401EC0EBC00103EB410100280A608A808A71C1F80720A1F80B204A73F0DC227030BC09F0C2BF0000684602087F
:405400007445020809F0BCBF18B5002401468DF800406A46204600F029F8002822D19DF8000000EB800101EBC0020F48416801EB4200427E012A15D144769DF8000000EB0E
:40544000800202EBC00001EB4000C0F8064044819DF8000000EB800202EBC00001EB40000460848018BD000074450208F0B5144C144D06464FF6FF70002364682D7811E048
:4054800003EB830707EBC307012E04EB470705D03F7E8F4204D113700020F0BD7F7E27B15B1CDBB2AB42EBD3F0BD03EB830000EBC30004EB4000012545760176EBE700001B
:4054C000744502085A4502081A2100FB01F2024800214068FCF7C8BF7445020838B50D4600218DF80010144601466A460020FFF7BDFF00281AD19DF8001001EB810202EB9A
:40550000C1030B494A6802EB43012B68CB60AB880B829DF8001001EB810303EBC10102EB41012268C1F81220A288CA8238BD00007445020810B538B1174A01781288914266
:4055400005D341F2154010BD41F2114010BD134CC1EBC102A16801EB420300221A609A800378C3EBC30301EB43039A710378C3EBC30301EB430343F8072F9A800378C3EBEE
:40558000C30301EB43014A732178491E217009F0F4FE002010BD0000684602087445020841F2114241B138B10E4B02781B889A4204D341F21540704710467047C2EBC2030C
:4055C000094A926802EB43035B7B8B710078C0EBC00002EB400050F8072F0A60808888800020704768460208744502082DE9FE434FF0000807460C008DF80080CDF80480BA
:4056000041F21140CDF8088008D0002F06D02E4839780088814203D341F21540BDE8FE836A460020FFF722FF284D06004FF001091CD19DF80000062200EB800101EBC00059
:40564000696801EB4001891D01A8FCF7F3FE68B19DF8000000EB800101EBC000696801EB4000D0F806102160408927E021463846FFF796FF0646A079022822D30FD19DF89E
:40568000000000EB800101EBC000696801EB4000C1682160008AA08084F8068011E003280FD19DF8000000EB800101EBC000696801EB4000D0F812102160C08AA08084F888
:4056C00006903046AAE70000684602087445020810B5024641F2114000291DD0002A1BD010481378048841F21540A34214D2C3EBC3040D4B9B6803EB4404A4798C7112786A
:40570000C2EBC20203EB420213680B6092888A8000228B5C0BB1002010BD521CD2B2062AF7D310BD6846020874450208FEB506464FF000008DF80000019002900C0041F2B1
:40574000114008D0002E06D0194831780088814202D341F21540FEBD6A460020FFF786FE05001ED19DF80020124F02EB820000EBC2007968062201EB400101A8FCF75AFEF5
:4057800078B19DF8000000EB800101EBC000796801EB4000016821608088A0800120A07104E021463046FFF793FF05462846FEBD684602087445020800B587B003A8FDF7FF
:4057C0001DFDBDF81600C00617D508208DF8010001208DF800009DF81A009DF814100844C0EBC0004000ADF80200002002900648806801906846FDF7F9FE9DF81A00FFF701
:4058000063FE07B000BD0000744502082DE9FC475FEA0109054641F2114134D095B3DFF880A08E1C0020BAF800402C70ADF80400DFF8708000908DF80600641ED8F80800D4
:40584000C4EBC40700EB470199F806208879824204D106224846FCF7EDFDB8B12978BAF80000814218D1D8F808009DF8062000EB4701887982420FD106226846FCF7DAFD24
:4058800038B109E0FFE70846BDE8FC8700262C7004E02C7041F21446002CCEDC3046F3E7684602087445020848B1064A0368D3608088108202F10C0081710020704741F2CE
:4058C000114070477445020810B541F2114241B138B10E4B02781B889A4204D341F2154010BD104610BDC2EBC204094A8B79926802EB4404A3710078C0EBC00002EB4000F9
:405900000A68026089888180002010BD684602087445020838B54FF6FF73012915D0022939D0032910D100788DF80100507803EA0020ADF8000011780843ADF80000694685
:4059400046F20200FEF79AFD38BD01781A480172D17803EA01210180947821430180517903EA01214180147921434180D17903EA01218180947921438180517A03EA012162
:40598000C180127A1143C180BDE8384001464FF4C040FEF773BD00788DF80200D07803EA0020ADF8000091780843ADF80000694646F20100C6E70000C46A02080C4810B5E1
:4059C000006808B1FDF7F4FC0A48006808B1FDF7EFFC0948006808B1FDF7EAFC07480068002803D0BDE81040FDF7E2BC10BD0000B045020898450208944502089C4502084A
:405A000003490020086003490860034908607047A8450208A04502089C45020838B5044600200090A07BA17910FB01F000EB80008004010C6846FDF717FB00281AD10E4970
:405A400000980860A07B00EBC000C1006846FDF70BFB00280ED1094900980860A07B00EB001081006846FDF7FFFA002802D1044A0099116038BD00009C450208A04502084A
:405A8000A8450208807B00EBC001C90000EB001001EB8000704700002DE9F843644F1E21624C7971017A01B901217970427A02B901223A70817A19B10B46C57A15B102E005
:405AC0000123FAE701256B43BB7001B90121F970491E3971C0880025042802D9001FF88000E0FD80C2EBC2008000FDF741FCDFF844810028C8F800007ED0387800EB8000D7
:405B00008000FDF735FC4C490028086074D0787800EBC0008000FDF72BFC484E002830607DD0002400F08CF82846009537E000EBC001306840F82150009901EBC10100EBB5
:405B400081014D60009901EBC10100EB81018D60009901EBC10100EB8101CD60009901EBC10100EB81010D61009901EBC10100EB81014D61009901EBC10100EB81018D614E
:405B8000009901EBC10100EB81018D83009901EBC10100EB8100C5830098401C009079788842C4D341462846009528E0C0EBC002086800EB82029560009AC2EBC20200EB87
:405BC00082029581009AC2EBC20200EB8202D581009AC2EBC20200EB82021561009AC2EBC20200EB82029582009AC2EBC20200EB8200C582009800E011E0401C00903A78F4
:405C00009042D3D32846009505E0684600F024FF0098401C009039788842F6D31CB100F00FF8FFF7CBFE2046BDE8F8830300160088450208B04502089845020894450208B9
:405C400010B51648164C006830B12178C1EBC1018A000021FCF708FC1248006830B1217801EB81018A000021FCF7FEFB0E48006830B1617801EBC1018A000021FCF7F4FBB9
:405C80000A480068002808D0A178BDE8104001EB81018A000021FCF7E7BB10BDB04502088845020898450208944502089C45020810B5FFF7C5FFBDE81040FFF77FBE08B5B2
:405CC00069468DF800008DF8012041F20200FEF7D5FB002008BD00002DE9F347284A9DF800000E46126800EB800100F1400912F8218002EB8101002488784D89022806D00C
:405D0000032806D0052804D0062805D103E0012402E0082400E00424684600F09DFE194FE00711D0184908EBC8003A68096801EBC00005EBC50102EB81012E30D1F804C0EB
:405D4000002332464946E04760070DD5A6F50C50383800D100263A6805EBC50002EB80003146C26848469047200707D5396805EBC50001EB8000816848468847BDE8FC872E
:405D80009845020894450208A04502082DE9FE430E468046082B05D00021304601F088FCBDE8FE8350794FF6FF71147901EA00200443D079957901EA002005432548264F96
:405DC000402C00780ED300F140018C420AD23A6804EB840102EB8101A1F2FE41097809B1A4F140008DF8080008F0FF02214602A800F0BCFE48B99DF80800396800EB8000B0
:405E000001EB80008088A84208D00023022231464046CDE9004501F093FCC1E7082307222146304601F0C6FC0C4906EB0610096801EB8001200A8C75C8750D76280A4876CC
:405E4000304601F031FB42F238319DF80800FFF743FFA5E78845020898450208A845020870B50D46082B42D150794FF6FF71167901EA00200643D07901EA00219079084314
:405E80001B4940280A781B490B682ED302F1400188422AD200EB800103EB8101A1F2FE41097811B3A0F14004E4B2A2421FD004EB840103EB81018A88B24218D1897806298E
:405EC00015D10D4A05EB0511126802EB8101498981420CD10121284601F0EAFB2046BDE8704042F23831FFF7F7BE1446DCE770BD8845020898450208A8450208F8B50746A2
:405F0000694600F0D1FA00287BD101220721009800F074F901220821009800F06FF9394E002456F8345025B104236A4602213846A847641C032CF4D30024334D42F2373791
:405F4000324E0CE0296804EB840011F820000099884203D1E0B23946FFF7BEFE641C30788442EFD300242A4D2A4E0FE0296804EB041001EB8000817B39B1406800998842EB
:405F800003D10121204601F093FB641C30788442ECD3214C0098216800EBC00001EBC000018D19B1818DC28C1144818506F034FC009901EBC102216801EBC2025085009851
:405FC00000EBC00001EBC000343009F0E1FE00984FF6FF7100EBC002206800EBC20291840099FF2201EBC10100EBC10181F82E200099172201EBC10100EBC100A0F84420C4
:406000000020F8BDD06A02089845020888450208A84502085A450208A0450208F0B50021FF270C462E4E2F4D28E001EBC10233694FF6FF7C03EBC200491CA0F824C080F8A8
:406040002E704FF0170CA0F844C04FF0030CC0F804C0DFF894C09CF800C0C0F808C0DFF88CC09CF800C043F832C04FF0FF32C260C0E90424C477048380F846402878814291
:40608000D3D300201A4AF16805E000EB800301EB8303401C1F7413789842F6D37461747014493470002041F83040401C0328FAD300201227B3690DE000EB001203EB8201D4
:4060C000401C8C7395F800C0C1F804C00C8103F822704C7429788842EED3F461F0BD0000904502085A4502088C4502088B4502088A450208D06A020870B50024094D0A4E22
:406100000BE0E96804EB840001EB8000007CFF2802D0204600F00CF9641C30788442F0D370BD0000904502088A45020808480949002200780B69401E10F0FF0000EBC00125
:4061400003EBC1010A854A858A85F4D1704700005A4502089045020818B1034948610020704742F216307047904502082DE9F04102461E484FF0FF360078814202D9304664
:40618000BDE8F0811A481B4C0378246801FB03F505EB850004EB8000002407E004EB840700EB87073F7CFF2F07D0641C9C42F5D30121084609F096F8E1E704EB84030027E1
:4061C00040F8237000EB83008781C78146600274094A01EBC100126852F830305B1E42F83030084600F0A0F92819C9E75A4502088B4502089C450208A04502082DE9F04751
:4062000091460D46072908D0082D06D02E4900EB0010096801EB800080882C4980B200EBC0080A6802EBC800C468621C4AD00069274F8A46844225D0396804EB840001EB1B
:40624000800017E03A6800EB800602EB86010B7CAB420BD104EB840302EB830249685160B9F1000F03D000F063F800E00446386800EB86004068411CE4D1DAF8001001EBEC
:40628000C8000461DAF800003B6800EBC801C86800EB800203EB82031B7CAB4212D10023CB770B833B6803EB82025268CA600B69834200D10A61B9F1000F03D0BDE8F04748
:4062C00000F036B8BDE8F087A8450208A04502089C450208F0B4144C024601EBC1032068124D00EBC300C668761C1AD000692E6800EB800006EB80004260206800EBC300E5
:40630000026120684FF0FF3200EBC3002B68006900EB800003EB80004260F0BC084600F0E1BA0261C260ECE7A04502089C4502082DE9F05FDFF8F48000EB80040025D8F812
:4063400000102F4601EB8400027C012A04D0072A0CD0082A51D115E035498068096800EB001001EB8000808885B246E051F82400454608B1FDF71CF8286800EB8400806812
:40638000050C3AE051F824200AB141F82470DFF8A4B086688089DBF8002006EB860AC6EBC60912F82A50244A136803EB89010B8B184480B208838B8A98421ED10869FCF7B1
:4063C000F7FF1D4940361FFA86FC0968002301EB89001A4607618782C7820783DBF8001001EB8A0015494089096800EBC00001EB80001946066A6046B047D8F80000FF211F
:4064000040F8247000EB84008781C78101740C4905EBC500096851F83020521C41F830202846BDE8F05F00F07FB800009C450208A845020898450208B0450208944502081D
:40644000A045020811B581B0FF24694601A800F02BF840B905490098096800EBC00001EBC00090F8464020461CBD0000A045020830B50B4B0B4C00221B6824780AE002EB1B
:40648000C20503EBC505AD8C854202D100200A6030BD521CA242F2D342F2113030BD0000A04502085A450208F0B50E4B00224FF6FF761D680C4B1C780FE002EBC20305EB27
:4064C000C3039F8CB74207D0077893F82E309F4202D100200A60F0BD521CA242EDD342F21130F0BDA04502085A4502080C4810B504689CB10B4900200B780DE000EBC0015A
:4065000004EBC101CA68521C02D10969491C01D0002010BD401C80B29842EFD3012010BDA04502085A450208154B30B4196809B1012400E00024134900EBC0000A6852F887
:40654000301002EBC0004268914202D890F8462092B18268914211D390F84620012A0DD1002280F84620012C08D110F82E2F1B68007E30BC89B218470122F2E730BC70477D
:40658000A4450208A04502082DE9F05F3149DFF8C89080464FF0000A81F800A000EBC806D9F8000000EBC600C568681C46D0DFF8ACB005EB85014F46DBF8000000EB810440
:4065C000D9F8000000EBC600C17F008B08440004000C03D14146284600F044F838681FFA88F200EBC601B9461431284600F088F820BB277C012F0ED11949A068096800EBA3
:40660000001301EB830181F811A0097C012902D1002101F04DF8D9F8000000EBC600C168A94201D16168C160D4E90150691C05D0082FBED1C0B200F04DFDBAE7D9F8000036
:4066400000EBC600C168491C01D1491E0161BDE8F09F000090450208A04502089C450208A8450208224A10B5126800EB800002EB80000022C4890368234401EBC1041D4981
:40668000096801EBC4014B618389C4891B1B9CB20C83037C012B04D0072B10D0082B18D10FE0154A8068126800EB001002EB8000807B08B105220CE00020088310BD027A20
:4066C00007E00E4A8068126800EB800002EB8000828811F81F0F001DC0B208702044001F4870000A8870CA70100A087110BD00009C450208A0450208A8450208984502084A
:406700002DE9F74F0C46C87A898882B0084486B2002001900498464900EBC0074FF0000B086800EBC700B0F82480A8F57F43FF3B04D184F80BB0A4F804B077E0808D8A4633
:4067400060B371E0DAF8000000EBC700028D0AB1828D1AB3458DB54200D33546721BC07F96B2F8B1002081464FEA182141EA091001998DF8008040EA81108DF801008DF835
:406780000250280A8DF803000123042269460220FDF7F6FBB9F1000F06D011E0012005B0BDE8F08F0120DEE70223E27A04F10C011846FDF7E5FBE07A84F80BB0281A85B2AE
:4067C000A08828B3A84200D80546A84213D3401B0004000CA08010D01648FF21018000232A4602202168FDF7CBFB70B10220049906F09AFBD2E7A4F804B0DAF800000D49BB
:4068000000EBC70080890880E9E7206828442060DAF8000000EBC700C18C491CC184018D11B1818D491E8185002E8BD10020B6E7A0450208B445020810B50F4A0F4B127850
:406840001C6860B159B1521E12F0FF0202EBC20304EBC303198558859985F4D110BD0021521E12F0FF0202EBC20004EBC000018541858185F4D110BD5A450208A045020806
:4068800038B50C466946FFF7F3FD002826D1009800EBC0011248006800EBC101CA8CA24201D2002200E0121BCA84009901EBC10100EBC1010A8D62B18A8D224492B28A853A
:4068C000009901EBC10100EBC100018D8A4200D98185002C02D0009800F004F838BD0000A04502080A4A1178002910D1094900EBC003096801EBC3018B8D002B07D0C968B3
:40690000491C04D0012111700021FFF73DBE704790450208A045020818B1034908600020704742F212307047AC450208F8B51C0015460E4604D01DB110B1311F032902D33C
:4069400042F21230F8BD6946FFF7AEFD10B142F25430F8BD009881B20720FFF707FC411C14D0009900EB800246EA014609490B6803EB82018E6043F822508C810422CA8176
:40698000009989B2FFF7A6FC0020F8BD42F21330F8BD00009C45020812B1031F032B02D342F212307047044B03EBC000203881800260002070470000D06A020838B5144650
:4069C00008B1042902D042F2123038BD6946FFF76BFD10B142F2543038BD05490098096800EBC00001EBC000A0F84440002038BDA045020830B505460C480D4C017822684B
:406A000042F22B30491E01EB810302EB83039B7813B10029F6D130BD2970236801EB8101002003EB810101228A7030BD884502089845020830B4074C0D4604EBC00050F85E
:406A4000204C002C04D02846A44630BC0321604730BC7047D06A02082DE9F041404E04463268002A79D03F4F3968002975D02078002500EB800302EB83029288402A1DD3DA
:406A8000C0EBC00001EB80008168B9B18089A8B10846FCF78DFC2078C0EBC001386800EB81018D602178C1EBC10100EB81018D812178C1EBC10100EB8100C581207839680E
:406AC000C0EBC00001EB80000069D0B1FCF770FC2078C0EBC001386800EB81010D612178C1EBC10100EB81018D822178C1EBC10100EB8101CD822178C1EBC10100EB81003E
:406B0000058319480178207800EB8002306800F82210217801EB810100EB81018D80217801EB810100EB8101CD80217801EB810100EB81010D81217801EB810100EB810174
:406B40000D61217801EB810100EB8101CD60217801EB810100EB810085700020BDE8F08198450208B04502085A45020870B505461048114C40290378246842F2703017D386
:406B800003F14006B14213D201EB810604EB8606A6F2FE4636785EB140398B4206D001EB810314F82330934200D10020297070BD1946F2E788450208984502082DE9F04782
:406BC00086B04FF0000AADF80AA014460E460546ADF808A0ADF80CA002AF0E2B03D002230022009743E060794FF6FF71227901EA00200243E079A37901EA002043EA000844
:406C0000501EFF2802D3022300972EE0607A237A01EA00201843ADF80800E37A894601EA0321ADF80A10A37A1943ADF80A10172803D3172901D3814202D90B23009714E0E4
:406C400004A9104600F01CFB0028DCD1607B09EA0020ADF80C00217B0843ADF80C0001A8FFF7C8FE48B10423009700223146284600F020FB06B0BDE8F0879DF804004A4CCF
:406C800000EB80010E23206800F821509DF80410BDF8102001EB810100EB81014A819DF8041001EB810100EB8101A1F804809DF80410BDF8082001EB810100EB81010A8185
:406CC0009DF80410394A01EB810100EB81010A619DF80410364A01EB810100EB8100C2609DF80400BDF80C10C0EBC0023148006800EB820291809DF80410BDF80A20C1EB91
:406D0000C10100EB81014A809DF80410BDF80C20C1EBC10100EB81018A809DF804101522C1EBC10100EB8101C1F808A09DF80410C1EBC10100EB8101A1F80CA09DF804105D
:406D4000C1EBC10100EB8100A0F80EA09DF8047030464037394600F02DFD9DF80400032200EB80012068154C00EB81014E709DF8041001EB810100EB81008270BDF81000EC
:406D8000246800EBC0010C48036803EB8100828B05EBC50004EBC00053F821402E3002AB3946A04766E7000098450208BD6F0810D1700810B045020894450208A04502083D
:406DC0002DE9F0478946824601EB09105649002586B009680E2B01EB800044897ED151794FF6FF7092F804C000EA01214CEA010CD179DFF83C8100EA012391790B43ADF87A
:406E00001030517A00EA0127ADF81270117A0F43ADF81270D17A00EA0121ADF81410967A3143ADF81410517B167B00EA012006433E48402C0178D8F800001CD301F140028E
:406E4000944218D204EB840200EB8202A2F2FE42127882B1A4F14002D2B28DF8042091425ED002EB820100EB81018A78022A57D11EB101252FE00A46EEE7172B01D39F4285
:406E800002D942F28136F4E705228A709DF8041001EB810100EB8101A1F804C09DF80410BDF8102001EB810100EB810002819DF80400BDF81410C0EBC0021E48006800EBAC
:406EC000820291809DF80410BDF81220C1EBC10100EB810042800121484600E020E000F0E7FB15B101A8FFF7B7FD13490AEBCA0004AB096801EBC0009DF804102E3001EB7C
:406F00008102D8F8001001EB82010C4A4989126801EBC10102EB810132464D682146A84706B0BDE8F0870000A84502088845020898450208B0450208A045020894450208E5
:406F40002DE9F04100781C4FC0EBC00500243868921E00EB85032646B3F80CC0BCF1000F07D0D9899C688818604518DC04B30C441EE048784FF6FF7C0CEA002C087840EA2A
:406F80000C00904214DD9881DE81801CFCF7F0F904000ED0386800EB8500846008E02046FCF706FA386800EB850086608681C6812046BDE8F0810000B04502082DE9F05FD7
:406FC000DFF800C104780D46DCF80000C4EBC40600EB86000021C388B3B15B1EC3808389DFF8E4A0DFF8E4B00027E0467BB1C2896546921EB9469A4236DC45D18568A5B1A9
:407000004FF001071A4611E042F27131E7E768784FF6FF7303EA00202B7843EA0003A2F10200834208D182B206E00022C0F80890A0F80C90A0F80E909AB1DAF8000004EB68
:40704000840300EB8300408900EBC003DBF8000000EB83001346D0F810C0AA1C04F14000E047012F0DD00FE08068FCF7A1F9286800EB8600C0F80890A0F80C90A0F80E9024
:4070800002E02846FCF794F9DAF8000004EB840100EB8100408900EBC001DBF8000000EB8100D8F80010C28B01EB8601C9888A4205D3426904F14000BDE8F05F1047BDE835
:4070C000F09F0000B04502089845020894450208704700002DE9FC5F81462D4A002001901068C9EBC90600EB86004788818AD0F810A0C08A081A274985B209EB8900096862
:40710000BAF1000F11F8200000903BD0C5B39346D846DBF8000000EB8600808888B385B308200099FFF722F8411C2BD02C46BD4200D93C46184900EB8002C3460B6803EB76
:407140008201C1F80890D8F800C00CEB860CBCF8168008EB0A0C43F822C08C810022CA810099FFF7B7F8DBF8000000EB86008188491E8180291B8DB2C18A2144C182C7E721
:4071800000E002E00020BDE8FC9F0198FBE70000B0450208984502089C4502082DE9F0478C460646082B60D150794FF6FF71137901EA00200343D079927901EA0020024393
:4071C0002B48002405782B482F46814601680FE004EB840001EB8008B8F80480984505D111F82000B04201D1254603E0641CE4B2BC42EDD3AF4205D1BDE8F047012160462C
:4072000000F056BA1C4FC5EBC506386800EB860188881044B0F5803F02D342F2733402E08880FAB100240121604600F041FA2846FFF750FF386805EB850100EB86008288EE
